{
  "contractName": "CrudApp",
  "abi": [
    {
      "constant": true,
      "inputs": [
        {
          "name": "",
          "type": "uint256"
        }
      ],
      "name": "models",
      "outputs": [
        {
          "name": "id",
          "type": "uint256"
        },
        {
          "name": "name",
          "type": "string"
        },
        {
          "name": "modelValue",
          "type": "uint256"
        }
      ],
      "payable": false,
      "stateMutability": "view",
      "type": "function"
    },
    {
      "inputs": [],
      "payable": false,
      "stateMutability": "nonpayable",
      "type": "constructor"
    },
    {
      "anonymous": false,
      "inputs": [
        {
          "indexed": false,
          "name": "id",
          "type": "uint256"
        },
        {
          "indexed": false,
          "name": "modelName",
          "type": "string"
        },
        {
          "indexed": false,
          "name": "modelValue",
          "type": "uint256"
        }
      ],
      "name": "ModelCreatedEvent",
      "type": "event"
    },
    {
      "anonymous": false,
      "inputs": [
        {
          "indexed": false,
          "name": "id",
          "type": "uint256"
        },
        {
          "indexed": false,
          "name": "modelName",
          "type": "string"
        }
      ],
      "name": "NameUpdated",
      "type": "event"
    },
    {
      "anonymous": false,
      "inputs": [
        {
          "indexed": false,
          "name": "modelName",
          "type": "string"
        }
      ],
      "name": "ModelDelete",
      "type": "event"
    },
    {
      "constant": false,
      "inputs": [
        {
          "name": "id",
          "type": "uint256"
        },
        {
          "name": "modelName",
          "type": "string"
        },
        {
          "name": "modelValue",
          "type": "uint256"
        }
      ],
      "name": "insert",
      "outputs": [
        {
          "name": "totalModels",
          "type": "uint256"
        }
      ],
      "payable": false,
      "stateMutability": "nonpayable",
      "type": "function"
    },
    {
      "constant": false,
      "inputs": [
        {
          "name": "id",
          "type": "uint256"
        },
        {
          "name": "modelName",
          "type": "string"
        }
      ],
      "name": "updateName",
      "outputs": [
        {
          "name": "success",
          "type": "bool"
        }
      ],
      "payable": false,
      "stateMutability": "nonpayable",
      "type": "function"
    },
    {
      "constant": false,
      "inputs": [
        {
          "name": "id",
          "type": "uint256"
        }
      ],
      "name": "deleteModel",
      "outputs": [
        {
          "name": "success",
          "type": "bool"
        }
      ],
      "payable": false,
      "stateMutability": "nonpayable",
      "type": "function"
    },
    {
      "constant": true,
      "inputs": [
        {
          "name": "id",
          "type": "uint256"
        }
      ],
      "name": "getModel",
      "outputs": [
        {
          "name": "identifier",
          "type": "uint256"
        },
        {
          "name": "modelName",
          "type": "string"
        },
        {
          "name": "modelValue",
          "type": "uint256"
        }
      ],
      "payable": false,
      "stateMutability": "view",
      "type": "function"
    }
  ],
  "bytecode": "0x608060405234801561001057600080fd5b50610d8e806100206000396000f30060806040526004361061006d576000357c0100000000000000000000000000000000000000000000000000000000900463ffffffff16806353e76f2c146100725780636a030ca9146100fd5780636d361694146101b15780639a24d56c14610265578063e73254c2146102aa575b600080fd5b34801561007e57600080fd5b506100e360048036038101908080359060200190929190803590602001908201803590602001908080601f016020809104026020016040519081016040528093929190818152602001838380828437820191505050505050919291929050505061033b565b604051808215151515815260200191505060405180910390f35b34801561010957600080fd5b5061012860048036038101908080359060200190929190505050610473565b6040518084815260200180602001838152602001828103825284818151815260200191508051906020019080838360005b83811015610174578082015181840152602081019050610159565b50505050905090810190601f1680156101a15780820380516001836020036101000a031916815260200191505b5094505050505060405180910390f35b3480156101bd57600080fd5b506101dc60048036038101908080359060200190929190505050610544565b6040518084815260200180602001838152602001828103825284818151815260200191508051906020019080838360005b8381101561022857808201518184015260208101905061020d565b50505050905090810190601f1680156102555780820380516001836020036101000a031916815260200191505b5094505050505060405180910390f35b34801561027157600080fd5b5061029060048036038101908080359060200190929190505050610711565b604051808215151515815260200191505060405180910390f35b3480156102b657600080fd5b5061032560048036038101908080359060200190929190803590602001908201803590602001908080601f016020809104026020016040519081016040528093929190818152602001838380828437820191505050505050919291929080359060200190929190505050610929565b6040518082815260200191505060405180910390f35b600080600090505b600080549050811015610467578360008281548110151561036057fe5b906000526020600020906003020160000154141561045a578260008281548110151561038857fe5b906000526020600020906003020160010190805190602001906103ac929190610b4c565b507f70a8f52a5cc7cf2d25e71645299888cb2ed1590225e7fca72f35ac61cf61d32484846040518083815260200180602001828103825283818151815260200191508051906020019080838360005b838110156104165780820151818401526020810190506103fb565b50505050905090810190601f1680156104435780820380516001836020036101000a031916815260200191505b50935050505060405180910390a16001915061046c565b8080600101915050610343565b600091505b5092915050565b60008181548110151561048257fe5b9060005260206000209060030201600091509050806000015490806001018054600181600116156101000203166002900480601f0160208091040260200160405190810160405280929190818152602001828054600181600116156101000203166002900480156105345780601f1061050957610100808354040283529160200191610534565b820191906000526020600020905b81548152906001019060200180831161051757829003601f168201915b5050505050908060020154905083565b60006060600080600090505b60008054905081101561069b578460008281548110151561056d57fe5b906000526020600020906003020160000154141561068e5760008181548110151561059457fe5b9060005260206000209060030201600001546000828154811015156105b557fe5b90600052602060002090600302016001016000838154811015156105d557fe5b906000526020600020906003020160020154818054600181600116156101000203166002900480601f01602080910402602001604051908101604052809291908181526020018280546001816001161561010002031660029004801561067c5780601f106106515761010080835404028352916020019161067c565b820191906000526020600020905b81548152906001019060200180831161065f57829003601f168201915b50505050509150935093509350610709565b8080600101915050610550565b6040517f08c379a00000000000000000000000000000000000000000000000000000000081526004018080602001828103825260168152602001807f6578616d706c654d6f64656c206e6f7420666f756e640000000000000000000081525060200191505060405180910390fd5b509193909250565b60008060008060008054905011151561072957600080fd5b600091505b60008054905082101561091d578360008381548110151561074b57fe5b90600052602060002090600302016000015414156109105760008281548110151561077257fe5b90600052602060002090600302016001019050600060016000805490500381548110151561079c57fe5b90600052602060002090600302016000838154811015156107b957fe5b906000526020600020906003020160008201548160000155600182018160010190805460018160011615610100020316600290046107f8929190610bcc565b5060028201548160020155905050600060016000805490500381548110151561081d57fe5b90600052602060002090600302016000808201600090556001820160006108449190610c53565b600282016000905550507fc573900d7140a8921f016ef898b8b1f6fa6e9a6634ce8baba40034ba701e03778160405180806020018281038252838181546001816001161561010002031660029004815260200191508054600181600116156101000203166002900480156108f95780601f106108ce576101008083540402835291602001916108f9565b820191906000526020600020905b8154815290600101906020018083116108dc57829003601f168201915b50509250505060405180910390a160019250610922565b818060010192505061072e565b600092505b5050919050565b600080610934610c9b565b600091505b600080549050821015610a0f578560008381548110151561095657fe5b9060005260206000209060030201600001541415610a02576040517f08c379a00000000000000000000000000000000000000000000000000000000081526004018080602001828103825260228152602001807f4d6f64656c206f2064616e796d206964206a757a207a6f7374616c20646f646181526020017f6e7900000000000000000000000000000000000000000000000000000000000081525060400191505060405180910390fd5b8180600101925050610939565b60606040519081016040528087815260200186815260200185815250905060008190806001815401808255809150509060018203906000526020600020906003020160009091929091909150600082015181600001556020820151816001019080519060200190610a81929190610cbd565b50604082015181600201555050507f27170ccb0a2328ac4eef5d10ce6974bbd7b534515756815996fdc76075dc3f5a8686866040518084815260200180602001838152602001828103825284818151815260200191508051906020019080838360005b83811015610aff578082015181840152602081019050610ae4565b50505050905090810190601f168015610b2c5780820380516001836020036101000a031916815260200191505b5094505050505060405180910390a1600080549050925050509392505050565b828054600181600116156101000203166002900490600052602060002090601f016020900481019282601f10610b8d57805160ff1916838001178555610bbb565b82800160010185558215610bbb579182015b82811115610bba578251825591602001919060010190610b9f565b5b509050610bc89190610d3d565b5090565b828054600181600116156101000203166002900490600052602060002090601f016020900481019282601f10610c055780548555610c42565b82800160010185558215610c4257600052602060002091601f016020900482015b82811115610c41578254825591600101919060010190610c26565b5b509050610c4f9190610d3d565b5090565b50805460018160011615610100020316600290046000825580601f10610c795750610c98565b601f016020900490600052602060002090810190610c979190610d3d565b5b50565b6060604051908101604052806000815260200160608152602001600081525090565b828054600181600116156101000203166002900490600052602060002090601f016020900481019282601f10610cfe57805160ff1916838001178555610d2c565b82800160010185558215610d2c579182015b82811115610d2b578251825591602001919060010190610d10565b5b509050610d399190610d3d565b5090565b610d5f91905b80821115610d5b576000816000905550600101610d43565b5090565b905600a165627a7a7230582084689f7435317ab9a6b5c18604c7daf037d39444db84500a1613c3da2a82a3590029",
  "source": "pragma solidity ^0.4.23;\r\n\r\ncontract CrudApp {\r\n    \r\n   struct exampleModel{\r\n      uint256 id;\r\n      string name;\r\n      uint256 modelValue;\r\n   }\r\n  \r\n   exampleModel[] public models; \r\n\r\n  \r\n    constructor() public {\r\n\r\n   }\r\n\r\n   event ModelCreatedEvent(uint256 id, string modelName, uint256 modelValue);\r\n   \r\n   event NameUpdated(uint256 id, string modelName);\r\n\r\n   event ModelDelete(string modelName);\r\n\r\n    \r\n   function insert( uint256 id, string modelName, uint256 modelValue) public returns (uint256 totalModels){\r\n       for(uint256 i =0; i< models.length; i++){\r\n           if(models[i].id == id){\r\n              revert('Model o danym id juz zostal dodany');\r\n           }\r\n       }\r\n        exampleModel memory newCountry = exampleModel(id, modelName, modelValue);\r\n        models.push(newCountry);\r\n        emit ModelCreatedEvent (id, modelName, modelValue);\r\n        return models.length;\r\n   }\r\n   \r\n   function updateName(uint256 id, string modelName) public returns (bool success){\r\n       for(uint256 i =0; i< models.length; i++){\r\n           if(models[i].id == id){\r\n              models[i].name = modelName;\r\n              emit NameUpdated(id, modelName);\r\n              return true;\r\n           }\r\n       }\r\n       return false;\r\n   }\r\n   \r\n   function deleteModel(uint256 id) public returns(bool success){\r\n        require(models.length > 0);\r\n        for(uint256 i =0; i< models.length; i++){\r\n           if(models[i].id == id){\r\n              string modelName = models[i].name;\r\n              models[i] = models[models.length-1];\r\n              delete models[models.length-1];\r\n              emit ModelDelete(modelName);\r\n              return true;\r\n           }\r\n       }\r\n       return false;\r\n   }\r\n   \r\n     \r\n   function getModel(uint256 id) public view returns(uint256 identifier, string modelName, uint256 modelValue){\r\n        for(uint256 i =0; i< models.length; i++){\r\n           if(models[i].id == id){\r\n              return (models[i].id , models[i].name , models[i].modelValue);\r\n           }\r\n       }\r\n       revert('exampleModel not found');\r\n   }     \r\n}",
  "sourcePath": "C:\\Users\\Piotrek\\Desktop\\ethCrud\\contracts\\CrudApp.sol",
  "compiler": {
    "name": "solc",
    "version": "0.4.23+commit.124ca40d.Emscripten.clang"
  },
  "schemaVersion": "3.4.8",
  "updatedAt": "2022-08-17T15:03:04.870Z",
  "networkType": "ethereum",
  "devdoc": {
    "methods": {}
  },
  "userdoc": {
    "methods": {}
  }
}